:020000040800F2
:1000000090070020CD010008A11D0008A71A0008D4
:100010009D1D0008D3020008F32200080000000024
:10002000000000000000000000000000D11D0008DA
:10003000D702000800000000A51D0008D31D00081D
:10004000E7010008E7010008E7010008E7010008F0
:10005000E7010008E7010008E7010008E7010008E0
:10006000E7010008E7010008E7010008E7010008D0
:10007000E7010008E7010008E7010008E7010008C0
:10008000E7010008E7010008E7010008E7010008B0
:10009000E7010008E7010008E7010008E7010008A0
:1000A000E7010008E7010008E7010008E701000890
:1000B000451E0008551E0008651E0008E7010008DF
:1000C000E7010008E7010008E7010008E701000870
:1000D000E7010008E7010008E7010008E701000860
:1000E000E7010008E7010008E7010008E701000850
:1000F000E7010008E7010008E7010008E701000840
:10010000E7010008E7010008E7010008E70100082F
:10011000E7010008E7010008E7010008E70100081F
:10012000E7010008E7010008E7010008E70100080F
:1001300000F002F800F03AF80AA090E8000C8244BF
:100140008344AAF10107DA4501D100F02FF8AFF29C
:10015000090EBAE80F0013F0010F18BFFB1A43F0A5
:10016000010318476023000080230000103A24BFD9
:1001700078C878C1FAD8520724BF30C830C144BF0C
:1001800004680C607047000000230024002500264E
:10019000103A28BF78C1FBD8520728BF30C148BFEA
:1001A0000B6070471FB51FBD10B510BD00F058F8AB
:1001B0001146FFF7F7FF02F0BBF800F076F803B442
:1001C000FFF7F2FF03BC00F07DF80000094880470C
:1001D00009480047FEE7FEE7FEE7FEE7FEE7FEE729
:1001E000FEE7FEE7FEE7FEE704480549054A064B41
:1001F00070470000411E00083101000890010020F6
:100200009007002090030020900300204FF0000290
:1002100000B5134694469646203922BFA0E80C50FC
:10022000A0E80C50B1F12001BFF4F7AF090728BFD7
:10023000A0E80C5048BF0CC05DF804EB890028BF53
:1002400040F8042B08BF704748BF20F8022B11F07C
:10025000804F18BF00F8012B7047704770477047F8
:10026000754600F02BF8AE4605006946534620F06F
:100270000700854618B020B5FFF7B6FFBDE820405F
:100280004FF000064FF000074FF000084FF0000B52
:1002900021F00701AC46ACE8C009ACE8C009ACE805
:1002A000C009ACE8C0098D46704710B50446AFF3ED
:1002B00000802046BDE81040FFF781BF004870472E
:1002C0003001002001491820ABBEFEE726000200E5
:1002D000704700BFFEE7704772B600BFFEE7000040
:1002E00070B5044600F0C8F906462546681C10B1F2
:1002F00004480078054400BF00F0BEF9801BA84206
:10030000FAD370BD080000202DE9F847024600230B
:100310009C467BE14FF0010808FA03F4D1F8008015
:1003200008EA0400A0427DD1DFF8F4A2D1F80480ED
:10033000A8EB0A09D0453AD014DCB8F1030F50D02D
:1003400009DCB8F1000F31D0B8F1010F1CD0B8F1C1
:10035000020F49D120E0B8F1110F18D0B8F1120FF7
:1003600042D11EE0B9F5881F25D006DCB9F5803FE3
:1003700020D0B9F5801F37D11AE0B9F5001F18D089
:10038000B9F5041F30D117E0D1F80CC02DE0D1F839
:100390000C8008F1040C28E0D1F80C8008F1080C5E
:1003A00023E0D1F80C8008F10C0C1EE000BF00BF68
:1003B00000BF00BF00BF00BFD1F80880B8F1000F38
:1003C00002D14FF0040C0BE0D1F80880B8F1010F16
:1003D00003D14FF0080C146102E04FF0080C546197
:1003E00003E04FF0000C00E000BF00BFFF2801D881
:1003F000904601E002F104084646FF2802D84FEA81
:10040000830803E0A3F108084FEA88084746D6F8B6
:1004100000804FF00F0909FA07F928EA09080CFAD9
:1004200007F900E07AE048EA0908C6F80080D1F848
:10043000048008F08058B8F1805F6FD100BFDFF80A
:10044000E481D8F8188048F00108DFF8D891C9F89D
:100450001880C846D8F8188008F00108CDF8008048
:1004600000BF00BF4FEAB9384FEA930958F8295046
:100470004FEA83784FEA18794FF00F0808FA09F825
:1004800025EA0805DFF8A081424502D14FF00008B7
:1004900024E0DFF89881424502D14FF001081DE0C9
:1004A000DFF88C81424502D14FF0020816E0DFF8F8
:1004B0008481424502D14FF003080FE0DFF87881D4
:1004C000424502D14FF0040808E0DFF87081424550
:1004D00002D14FF0050801E04FF006084FEA83799A
:1004E0004FEA197908FA09F848EA0505DFF850815A
:1004F0004FEA930948F82950D1F8048008F480188D
:10050000B8F5801F0BD1DFF83C81D8F8008048EAAD
:100510000008DFF83091C9F800800AE075E0DFF8E4
:100520002481D8F8008028EA0008DFF81891C9F87B
:100530000080D1F8048008F40018B8F5001F0ED12F
:10054000DFF8008108F10408D8F8008048EA0008C4
:10055000DFF8F09009F10409C9F800800DE0DFF838
:10056000E48008F10408D8F8008028EA0008DFF8E1
:10057000D49009F10409C9F80080D1F8048008F486
:100580000038B8F5003F0ED1DFF8B880A8F10408B4
:10059000D8F8008048EA0008DFF8A890A9F104091B
:1005A000C9F800800DE0DFF89C80A8F10408D8F8B5
:1005B000008028EA0008DFF88C90A9F10409C9F846
:1005C0000080D1F8048008F48038B8F5803F0ED15F
:1005D000DFF87080A8F10808D8F8008048EA000821
:1005E000DFF86090A9F10809C9F800800DE0DFF894
:1005F0005480A8F10808D8F8008028EA0008DFF83D
:100600004490A9F10809C9F800805B1CD1F800806A
:1006100028FA03F8B8F1000F7FF47CAEBDE8F88744
:10062000000011100010024000080140000C0140C1
:10063000001001400014014000180140001C01405E
:100640000800014008040140024693680B400BB1CA
:10065000012000E00020704710B5C26821EA0203C3
:1006600002EA010443EA0443036110BD0AB10161D7
:1006700001E00B0403617047014800687047000007
:100680000000002003480068034909780844014934
:1006900008607047000000200800002010B50848DE
:1006A000006840F0100006490860032000F0A8F838
:1006B0000F2000F007F800F02BF8002010BD00001C
:1006C0000020024070B504460E4800784FF47A715D
:1006D000B1FBF0F00C490968B1FBF0F5284600F0D9
:1006E000F9FB08B1012070BD102C07D20022214671
:1006F000501E00F047F80548046001E00120F2E7D1
:100700000020F0E7080000200C000020040000207A
:1007100008B500BF1148806940F001000F498861A9
:100720000846806900F00100009000BF00BF00BFD4
:100730000846C06940F08050C8610846C06900F0B2
:100740008050009000BF00BF00BF0549486820F0FE
:10075000E06040F00070486000BF08BD001002403B
:100760000000014001460846002809DB00F01F0395
:1007700001229A4043099B0003F1E023C3F80021C2
:1007800000BF70472DE9F05F80460D4616460027F2
:1007900001F0B2FD074639462A46334601F007000C
:1007A000C0F1070ABAF1040F02D94FF0040A01E0C0
:1007B000C0F1070AD14600F1040ABAF1070F02D2CC
:1007C0004FF0000A01E0A0F1030AD4464FF0010AFD
:1007D0000AFA09FAAAF1010A0AEA020A0AFA0CFA62
:1007E0004FF0010B0BFA0CFBABF1010B0BEA030B07
:1007F0004AEA0B042146404601F086FDBDE8F09F21
:1008000000BF00F00702064B19684FF6FF031940BE
:10081000044B0B4343EA0221014B196000BF7047B0
:100820000CED00E00000FA0570B504460D460CB969
:10083000012070BD5A48006800F00700A8420ED29F
:100840005748006820F007002843554908600846CB
:10085000006800F00700A84201D00120E9E72078F5
:1008600000F0020002281DD1207800F004000428C6
:1008700005D14C48406840F4E0604A49486020781F
:1008800000F00800082805D14648406840F4605050
:10089000444948604348406820F0F000A16808439C
:1008A00040494860207800F0010078B36068012872
:1008B00006D13C48006800F4003090B90120B8E748
:1008C0006068022806D13748006800F0007040B91F
:1008D0000120AEE73348006800F0020008B90120AB
:1008E000A7E73048406820F00300616808432D49BD
:1008F0004860FFF7C1FE064609E0FFF7BDFE801B1A
:1009000041F28831884202D9032092E707E0254866
:10091000406800F00C006168B0EB810FEDD1204819
:10092000006800F00700A8420ED91D48006820F0BA
:10093000070028431A4908600846006800F00700CD
:10094000A84201D0012074E7207800F004000428B8
:1009500007D11448406820F4E060E1680843114979
:100960004860207800F00800082808D10D48406849
:1009700020F46050216940EAC1000A49486000F053
:100980003FF808494968C1F30311074A515CC84060
:100990000649086006480068FFF794FE002048E713
:1009A0000020024000100240AA2400080C00002091
:1009B0000400002001480068704700000C0000207F
:1009C00000B5FFF7F7FF04494968C1F30221034A64
:1009D000515CC84000BD000000100240BA2400086D
:1009E00000B5FFF7E7FF04494968C1F3C221034A94
:1009F000515CC84000BD000000100240BA2400084D
:100A000070B500210022002400230020134D6968E6
:100A100001F00C05F5B1042D02D0082D19D101E02B
:100A20000F4819E00F4DC1F38346AB5D01F48035EB
:100A300055B10A4D6D68C5F340450B4E725D084DCA
:100A40005D43B5FBF2F402E0084D03FB05F42046DC
:100A500002E000BF024800BF00BF70BD00100240AE
:100A600000127A0098240008A824000800093D001C
:100A7000F8B504460CB90120F8BD207800F001005B
:100A8000002878D0F848406800F00C0004280CD00A
:100A9000F548406800F00C00082811D1F248406881
:100AA00000F48030B0F5803F0AD1EF48006800F4D0
:100AB000003000285FD0606800285CD10120DBE7AF
:100AC00000BF6068B0F5803F06D1E748006840F499
:100AD0008030E549086028E0606858B9E24800685D
:100AE00020F48030E04908600846006820F4802047
:100AF00008601AE06068B0F5A02F0BD1DA480068F2
:100B000040F48020D84908600846006840F48030EE
:100B100008600AE0D448006820F48030D2490860B8
:100B20000846006820F48020086000BF606888B133
:100B3000FFF7A2FD054606E0FFF79EFD401B642877
:100B400001D9032098E7C848006800F40030002865
:100B5000F2D010E0FFF790FD054606E0FFF78CFDB0
:100B6000401B642801D9032086E7BF48006800F4D1
:100B700000300028F2D1207800F00200022857D17E
:100B8000B948406800F00C0050B1B748406800F028
:100B90000C00082818D1B448406800F4803098B997
:100BA000B148006800F0020020B12069012801D09E
:100BB000012061E7AC48006820F0F800616940EA74
:100BC000C100A949086033E02069E8B10120A749C4
:100BD0000860FFF751FD054606E0FFF74DFD401B9D
:100BE000022801D9032047E79F48006800F002006F
:100BF0000028F2D09C48006820F0F800616940EAC3
:100C0000C1009949086013E0002098490860FFF787
:100C100033FD054606E0FFF72FFD401B022801D9F2
:100C2000032029E79048006800F002000028F2D174
:100C3000207800F0080008282DD1A069B8B1012063
:100C40008B490860FFF718FD054606E0FFF714FD25
:100C5000401B022801D903200EE78348406A00F0B8
:100C600002000028F2D0012001F09EF813E00020DD
:100C70007F490860FFF700FD054606E0FFF7FCFC32
:100C8000401B022801D90320F6E67748406A00F0AD
:100C900002000028F2D1207800F00400042873D16B
:100CA00000277148C06900F0805070B900BF6E48DD
:100CB000C06940F080506C49C8610846C06900F0C6
:100CC0008050009000BF00BF01276A48006800F410
:100CD0008070B0B96748006840F48070654908606A
:100CE000FFF7CAFC054606E0FFF7C6FC401B642878
:100CF00001D90320C0E65F48006800F48070002836
:100D0000F2D000BFE068012806D15748006A40F0E1
:100D100001005549086227E0E06858B95248006A66
:100D200020F00100504908620846006A20F00400E3
:100D3000086219E0E06805280BD14B48006A40F0D2
:100D40000400494908620846006A40F00100086250
:100D50000AE04548006A20F001004349086208465D
:100D6000006A20F00400086200BFE068A0B1FFF74D
:100D700083FC054609E0FFF77FFC401B41F2883108
:100D8000884202D9032077E622E03748006A00F063
:100D900002000028EFD012E0FFF76EFC054608E0E5
:100DA000FFF76AFC401B41F28831884201D90320D9
:100DB00062E62D48006A00F002000028F0D1012F01
:100DC00005D12948C06920F080502749C86100BF7B
:100DD000E069C8B32448406800F00C00082860D0DF
:100DE000E069022848D1002020490866FFF744FC4A
:100DF000054606E0FFF740FC401B022801D903200E
:100E00003AE61948006800F000700028F2D1206A24
:100E1000B0F5803F07D11448406820F40030A16845
:100E2000084311494860D4E9080108430E4949685C
:100E300021F4741108430C49486001200B490866ED
:100E4000FFF71AFC054607E03DE0FFF715FC401BE5
:100E5000022801D903200FE60348006800F0007063
:100E60000028F2D02FE000000010024000004242B3
:100E70008004424200700040002014490866FFF7D9
:100E8000FBFB054606E0FFF7F7FB401B022801D9F4
:100E90000320F1E50E48006800F000700028F2D150
:100EA00011E0E069012800D1E6E50948466806F44A
:100EB0008031206A814204D106F47011606A814257
:100EC00001D00120D8E50020D6E500000000424214
:100ED0000010024070B504462546681EB0F1807FC0
:100EE00001D301200FE0681E4FF0E02148610F217F
:100EF0004FF0FF3001F008FA00204FF0E021886148
:100F000007200861002070BD7047704730B5024669
:100F10000B4600BF92F83C00012801D1022030BDF1
:100F2000012082F83C0000BF022082F83D001068DA
:100F300044681068816824F07004186804431068DD
:100F40004460144D1068A84213D0134D1068A84295
:100F50000FD01068B0F1804F0BD0104D1068A84230
:100F600007D00F4D1068A84203D00E4D1068A8425C
:100F700005D121F08001586801431068816001208B
:100F800082F83D0000BF002082F83C0000BF00BF97
:100F9000C5E70000002C014000340140000400407F
:100FA00000080040000C004010B504460CB90120B8
:100FB00010BD94F83D0028B9002084F83C0020467C
:100FC00000F026F8022084F83D00211D206800F082
:100FD00051FF012084F8460000BF84F83E00012143
:100FE0003F200155402001554120015500BF00BF61
:100FF000012084F84200432001554420015545203A
:10100000015500BF012084F83D000020D0E700001A
:1010100038B504462068B0F1804F16D100BF26488D
:10102000C06940F001002449C8610846C06900F069
:101030000100009000BF00BF002211461C20FFF7F6
:10104000A1FB1C20FFF78EFB34E01C49206888427E
:1010500016D100BF1848C06940F002001649C861A7
:101060000846C06900F00200009000BF00BF0022E7
:1010700011461D20FFF786FB1D20FFF773FB19E0CB
:101080000F492068884215D100BF0B48C06940F065
:1010900004000949C8610846C06900F004000090D6
:1010A00000BF00BF002211461E20FFF76BFB1E2071
:1010B000FFF758FB38BD000000100240000400405C
:1010C00000080040014691F83D00012801D00120B0
:1010D0007047022081F83D000868C06840F00100B8
:1010E0000B68D860164B0868984213D0154B0868F7
:1010F00098420FD00868B0F1804F0BD0124B0868AF
:10110000984207D0114B0868984203D0104B0868EA
:1011100098420CD10868806800F00702062A0CD0BB
:101120000868006840F001000B68186005E0086876
:10113000006840F001000B6818600020C8E700005C
:10114000002C014000340140000400400008004031
:10115000000C00402DE9F04104460D46002700BF79
:1011600094F83C00012802D10220BDE8F081012062
:1011700084F83C0000BF022084F83D0020688668A7
:1011800026F0770626F47F46206886602868502877
:1011900033D00CDC202850D004DC00284BD01028A1
:1011A00051D149E0302849D040284CD139E060285D
:1011B0002DD0702807D0B0F5805F03D0B0F5005F68
:1011C00041D10DE041E0D5E902136A68206800F0E2
:1011D000B0FE2068866846F077062068866034E0B6
:1011E000D5E902136A68206800F0A3FE20688068D1
:1011F00040F480402168886027E0EA6869682068D8
:1012000000F088FF5021206800F09EFE1DE0EA6893
:101210006968206800F091FF6021206800F094FE6A
:1012200013E0EA686968206800F074FF40212068D4
:1012300000F08AFE09E000BF00BF00BF29682068F7
:1012400000F082FE01E0012700BF00BF012084F80A
:101250003D0000BF002084F83C0000BF384684E712
:10126000704710B5044620680069C0F34000D8B14B
:101270002068C068C0F34000B0B16FF00200216880
:101280000861012020772068806900F0030018B110
:101290002046FFF7E5FF05E0204600F059F920461B
:1012A00000F041FA0020207720680069C0F3800038
:1012B000D8B12068C068C0F38000B0B16FF00400FE
:1012C00021680861022020772068806900F440705E
:1012D00018B12046FFF7C4FF05E0204600F038F9BA
:1012E000204600F020FA0020207720680069C0F333
:1012F000C000D8B12068C068C0F3C000B0B16FF0C2
:10130000080021680861042020772068C06900F087
:10131000030018B12046FFF7A3FF05E0204600F0C8
:1013200017F9204600F0FFF90020207720680069B7
:10133000C0F30010D8B12068C068C0F30010B0B18D
:101340006FF0100021680861082020772068C069CC
:1013500000F4407018B12046FFF782FF05E02046F8
:1013600000F0F6F8204600F0DEF900202077206833
:10137000006900F0010058B12068C06800F0010069
:1013800030B16FF0010021680861204600F046FA94
:1013900020680069C0F3C01058B12068C068C0F36D
:1013A000C01030B16FF08000216808612046FFF75F
:1013B000ABFD20680069C0F3801058B12068C06898
:1013C000C0F3801030B16FF0400021680861204602
:1013D00000F032FA20680069C0F3401058B120686C
:1013E000C068C0F3401030B16FF020002168086180
:1013F0002046FFF78AFD10BD10B586B004460020D8
:1014000002900390049005902068B0F1804F21D1A4
:1014100000BF2D48806940F008002B4988610846CC
:10142000806900F00800019000BF00BF0820029012
:1014300002200390059002A92448FEF765FF00BF33
:101440002349486820F4407040F0E06040F4807028
:10145000486036E01F492068884217D100BF1A480B
:10146000806940F00400184988610846806900F0EE
:101470000400019000BF00BFC02002900220039032
:10148000059002A91448FEF73FFF1AE013492068AF
:10149000884216D100BF0C48806940F008000A4914
:1014A00088610846806900F00800019000BF00BF15
:1014B0004020029002200390059002A90348FEF705
:1014C00023FF06B010BD000000100240000C0140D8
:1014D00000000140000400400008014000080040F6
:1014E0002DE9F04104460E461546002700BF94F84A
:1014F0003C00012802D10220BDE8F081012084F8DF
:101500003C0000BF35B1042D09D0082D0CD00C2DA6
:1015100014D10EE03146206800F020FD10E0314685
:10152000206800F053FD0BE03146206800F08CFD90
:1015300006E03146206800F0C3FD01E0012700BF4E
:1015400000BF00BF002084F83C0000BF3846D3E74E
:10155000704710B504460CB9012010BD94F83D0049
:1015600028B9002084F83C00204600F025F802202D
:1015700084F83D00211D206800F07CFC012084F8E7
:10158000460000BF84F83E0001213F200155402065
:1015900001554120015500BF00BF012084F84200E1
:1015A00043200155442001554520015500BF01202D
:1015B00084F83D000020D0E770472DE9F041044653
:1015C0000D461646002700BF94F83C00012802D1C2
:1015D0000220BDE8F081012084F83C0000BF36B154
:1015E000042E1BD0082E31D00C2E5ED145E02946AA
:1015F000206800F0B3FC2068806940F00800216892
:1016000088612068806920F0040021688861206872
:101610008069296908432168886148E02946206873
:1016200000F0D4FC2068806940F400602168886183
:101630002068806920F48060216888612068806962
:10164000296940EA01202168886130E02946206844
:1016500000F0FAFC2068C06940F008002168C86109
:101660002068C06920F004002168C8612068C06952
:10167000296908432168C86119E02946206800F0FB
:101680001FFD2068C06940F400602168C8612068BF
:10169000C06920F480602168C8612068C069296938
:1016A00040EA01202168C86101E0012700BF00BFB6
:1016B00000BF002084F83C0000BF384689E710B521
:1016C00004460CB9012010BD94F83D0028B9002053
:1016D00084F83C00204600F025F8022084F83D0004
:1016E000211D206800F0C6FB012084F8460000BFE1
:1016F00084F83E0001213F20015540200155412042
:10170000015500BF00BF012084F84200432001556D
:10171000442001554520015500BF012084F83D00BB
:101720000020D0E77047704770B504460D4615B9E4
:1017300094F83E000BE0042D02D13F20005D06E04E
:10174000082D02D14020005D01E04120005D01280C
:1017500001D0012070BD1DB9022084F83E000EE0CA
:10176000042D03D102213F20015508E0082D03D1AB
:1017700002214020015502E00221412001550122B1
:101780002946206800F0C4FB1F492068884203D026
:101790001E492068884201D1012000E0002028B1C4
:1017A0002068406C40F40040216848641649206875
:1017B000884213D01549206888420FD02068B0F1C4
:1017C000804F0BD012492068884207D01149206809
:1017D000884203D01049206888420CD12068806874
:1017E00000F00706062E0CD02068006840F00100CB
:1017F0002168086005E02068006840F00100216869
:1018000008600020A6E70000002C014000340140E1
:101810000004004000080040000C004010B50446E1
:1018200001210448FEF718FF02210248FEF714FFC9
:1018300010BD0000000C0140704710B504460CB903
:10184000012010BDA06900B100E000BF94F8410084
:1018500028B9002084F84000204600F029F8242010
:1018600084F841002068C06820F400502168C860F6
:10187000204600F077FC2068006920F49040216841
:1018800008612068406920F02A00216848612068CA
:10189000C06840F400502168C860002060642020C7
:1018A00084F8410084F842000020606300BFC8E76C
:1018B00010B586B004460020029003900490059075
:1018C0001A49206888422ED100BF1948806940F427
:1018D0008040174988610846806900F48040019083
:1018E00000BF00BF00BF0846806940F00400886167
:1018F0000846806900F00400019000BF00BF481551
:101900000290022003900320059002A90948FEF7E7
:10191000FBFC4FF48060029000200390049002A929
:101920000448FEF7F1FC06B010BD0000003801408D
:1019300000100240000801402DE9F84F04460E4611
:10194000174699464FF0000A94F8420020284FD1DC
:1019500006B117B90120BDE8F88F0020606422208D
:1019600084F8420000202063FEF786FE8246A785A9
:10197000E785A068B0F5805F04D1206910B9002523
:10198000B04602E035464FF0000829E053460022F9
:1019900020212046CDF8009000F062FC08B1032021
:1019A000D9E745B920684068C0F30800A8F80000EE
:1019B00008F1020811E0A068B0F5805F03D0A068CC
:1019C00028B9206918B920684068287004E02068A8
:1019D000406800F07F0028706D1CE08D401EE0859F
:1019E000E08D0028D2D1202084F842000020B2E708
:1019F0000220B0E72DE9F84F04460E4617469946F7
:101A00004FF0000A94F8410020284AD106B117B9D6
:101A10000120BDE8F88F00206064212084F8410097
:101A2000FEF72AFE8246A784E784A068B0F5805FAF
:101A300004D1206910B90025B04602E035464FF0C8
:101A400000081BE05346002280212046CDF800907C
:101A500000F006FC08B10320DBE745B9B8F8000048
:101A6000C0F308002168486008F1020803E0287804
:101A7000216848606D1CE08C401EE084E08C0028EA
:101A8000E0D15346002240212046CDF8009000F0DE
:101A9000E7FB08B10320BCE7202084F841000020C8
:101AA000B7E70220B5E700BFFEE7000000B585B04C
:101AB0000020019002900390049000BF27488069A5
:101AC00040F01000254988610846806900F0100048
:101AD000009000BF00BF00BF0846806940F00400CE
:101AE00088610846806900F00400009000BF00BFD4
:101AF00000BF0846806940F0080088610846806998
:101B000000F00800009000BF00BF0022032114482D
:101B1000FEF7ACFD4FF4005001900020029002202F
:101B2000039001A90F48FEF7EFFB01200190002070
:101B300002900220039001A90B48FEF7E5FB032069
:101B4000019001200290002003900220049001A93E
:101B50000348FEF7D9FB05B000BD000000100240AD
:101B6000000C0140001001400008014000B58DB09C
:101B7000002009900A900B900C90079008901C216F
:101B80006846FEF743FB4FF080401F49086041F66E
:101B90001F40486000211C48816040F2CF71C16045
:101BA000002101618161FFF7FFF908B1FEF794FBA5
:101BB0004FF48050099009A91348FFF7CBFA08B1F8
:101BC000FEF78AFB1048FFF7C4FC08B1FEF784FB60
:101BD00000200790089007A90B48FFF797F908B174
:101BE000FEF77AFB002000900190029004900422FE
:101BF00069460548FFF774FC08B1FEF76DFB024823
:101C0000FFF7FAFB0DB000BD1000002000B58DB04D
:101C1000002009900A900B900C90079008901C21CE
:101C20006846FEF7F3FA24482449086040F65F103E
:101C3000486000212148816040F2E731C160002105
:101C400001618161FFF7B0F908B1FEF745FB4FF480
:101C50008050099009A91948FFF77CFA08B1FEF7EE
:101C60003BFB1648FFF72BFD08B1FEF735FB0020C4
:101C70000790089007A91148FFF748F908B1FEF747
:101C80002BFB602000900020019002900490002225
:101C900069460A48FFF791FC08B1FEF71DFB0422D4
:101CA00069460648FFF789FC08B1FEF715FB0348B3
:101CB000FFF7A2FB0DB000BD00040040580000205B
:101CC00000B58DB0002009900A900B900C90079001
:101CD00008901C216846FEF799FA204820490860C0
:101CE00041F61F40486000211D48816042F20F719B
:101CF000C160002101618161FFF756F908B1FEF76B
:101D0000EBFA4FF48050099009A91548FFF722FA21
:101D100008B1FEF7E1FA1248FFF71BFC08B1FEF725
:101D2000DBFA00200790089007A90D48FFF7EEF8AE
:101D300008B1FEF7D1FA00200090019002900490C3
:101D4000002269460648FFF7CBFB08B1FEF7C4FA4C
:101D50000348FFF751FB0DB000BD00000008004034
:101D6000A000002010B50B480B4908604FF4E1308B
:101D70004860002108488160C16001610C21416117
:101D800000218161C161FFF758FD08B1FEF7A4FA97
:101D900010BD000000380140E800002000BFFEE751
:101DA00000BFFEE77047000008B508490968C90888
:101DB0004FF47A72B1FBF2F14143009100BF00BFD2
:101DC00000994A1E00920029F9D108BD0C0000209C
:101DD000704710B5FEF756FC10BD00B58FB0282136
:101DE00005A8FEF713FA14216846FEF70FFA012042
:101DF0000590000406900020079001200990022021
:101E00000C90C1030D914FF4E0110E9105A8FEF75F
:101E10002FFE08B1FEF760FA0F200090022001901B
:101E2000002002904FF48060039000200490022173
:101E30006846FEF7F9FC08B1FEF74EFA0FB000BD98
:101E40007047000010B50248FFF70BFA10BD000004
:101E50001000002010B50248FFF703FA10BD000083
:101E60005800002010B50248FFF7FBF910BD000034
:101E7000A000002010B50268204B98420ED0204BE5
:101E800098420BD0B0F1804F08D01E4B984205D03D
:101E90001D4B984202D01D4B984203D122F0700294
:101EA0004B681A43154B98420ED0154B98420BD0F5
:101EB000B0F1804F08D0134B984205D0124B984296
:101EC00002D0124B984203D122F44072CB681A43DD
:101ED00022F080034C6943EA040202608B68C3620B
:101EE0000B688362054B984202D0054B984201D1A2
:101EF0000B6903630123436110BD0000002C014006
:101F0000003401400004004000080040000C004084
:101F100030B501F01F05012404FA05F3046A9C435F
:101F20000462046A01F01F0502FA05F52C430462FD
:101F300030BD30B50C46816821F47F4142EA03256B
:101F400025432943816030BD0A46816821F0700134
:101F500042F00703194381607047000030B5026A00
:101F6000056A25F0010505624368846924F0700460
:101F700024F003040D682C4322F002028D682A43EA
:101F8000104DA84200D103E00F4DA84206D100BF7A
:101F900022F00802CD682A4322F00402094DA8422B
:101FA00002D0094DA84207D123F4807323F40073B3
:101FB0004D692B438D692B43436084614D684563B4
:101FC000026230BD002C01400034014030B5026A8D
:101FD000056A25F0100505624368846924F4E0442D
:101FE00024F440740D6844EA052422F020028D6830
:101FF00042EA0512124DA84200D103E0114DA84259
:1020000007D100BF22F08002CD6842EA051222F01B
:1020100040020B4DA84202D00A4DA84209D123F438
:10202000806323F400634D6943EA85038D6943EAC5
:102030008503436084614D688563026230BD0000A2
:10204000002C01400034014030B5026A056A25F4D5
:10205000807505624368C46924F0700424F00304A9
:102060000D682C4322F400728D6842EA0522124D5D
:10207000A84200D103E0114DA84207D100BF22F4CD
:102080000062CD6842EA052222F480620A4DA8422D
:1020900002D00A4DA84209D123F4805323F40053FF
:1020A0004D6943EA05138D6943EA05134360C46132
:1020B0004D68C563026230BD002C01400034014010
:1020C00030B5036A056A25F4805505624468C26923
:1020D00022F4E04222F440720D6842EA052223F421
:1020E00000538D6843EA0533084DA84202D0084DDD
:1020F000A84204D124F480444D6944EA8514446024
:10210000C2614D680564036230BD0000002C0140CF
:102110000034014030B50B461446026A056A25F0CA
:1021200001050562816921F0F00141EA041122F004
:102130000A021A438161026230BD30B50B46144673
:10214000026A056A25F010050562816921F4704173
:1021500041EA043122F0A00242EA031281610262E4
:1021600030BD000070B504462168096921F4405172
:10217000E2681143226811612269A1681143626912
:1021800041EA02052168C96841F20C629143294382
:102190002268D1602168496921F44071A269114324
:1021A000226851612D4A2168914202D1FEF718FC44
:1021B00001E0FEF705FC00EBC00101EB00116268D5
:1021C0009200B1FBF2F100EBC00202EB0012636877
:1021D0009B00B2FBF3F26423B2FBF3F202EBC20307
:1021E00003EB0212A1EB8201322202EB0111642205
:1021F000B1FBF2F101F0F00100EBC00202EB0012C2
:1022000063689B00B2FBF3F26423B2FBF3F201EBD1
:10221000021200EBC00101EB001163689B00B1FBEF
:10222000F3F100EBC00303EB00136668B600B3FBE9
:10223000F6F36426B3FBF6F303EBC30606EB0313D6
:10224000A1EB8301322303EB01116423B1FBF3F112
:1022500001F00F0111442268916070BD0038014007
:102260002DE9F04104460D4617469846069E34E097
:10227000701C88B32EB1FEF7FFF9A0EB0800B04246
:102280002BD900BF00BF21680C3151E8001F21F499
:10229000D07021680C3141E80002002AF3D100BF60
:1022A00000BF00BF2168143151E8001F21F0010078
:1022B0002168143141E80002002AF3D100BF202038
:1022C00084F8410084F8420000BF002084F84000F8
:1022D00000BF0320BDE8F081FFE7206800682840C8
:1022E000A84201D1012000E00020B842C0D0002067
:1022F000F0E700BFFEE7000002480068C0F30220DC
:10230000704700000CED00E010B5002804DB0A0760
:10231000130E054A135406E00A07140E034A00F090
:102320000F031B1FD45410BD00E400E018ED00E0C3
:102330001CB5C820019042F21070009000BF00242C
:10234000FEF7ACF9FFF7B2FBFFF760FC00214C4849
:10235000FFF7EAF904214A48FFF7E6F94FF49670CF
:102360004749096848634FF42F70454909688863F5
:10237000FFF733FD41F61F40414909688862BDF807
:1023800004003F4909684863BDF804003C490968F6
:102390008863FFF78BFBFFF7E9FBFFF737FCFFF7DD
:1023A0008FFCFFF7DFFC3748FEF78CFE3648FEF760
:1023B00089FE63E001213548FEF746F901280ED178
:1023C000BDF80400C83080B20190BDF804002C496B
:1023D00009684863BDF804002949096888634FF417
:1023E00000512B48FEF730F9012816D1BDF8000046
:1023F000A0F5FA6080B2009041F61F4020490968BC
:1024000088624FF4FA60FDF76BFF01211F48FEF769
:102410001BF9012801D1E043C4B201211B48FEF79A
:1024200013F9012813D1831E022269461948FFF7C8
:10243000E1FA4FF0FF33022201A91648FFF77CFAB8
:102440004FF0FF33022201A91248FFF775FA4FF04F
:10245000FF33022201A90F48FFF7CCFA4FF0FF33F8
:10246000022269460B48FFF7C5FABDF8040004498B
:10247000096848634FF47A70FDF732FF9AE700006D
:102480005800002010000020A0000020000801409B
:1024900000100140E80000200203040506070809B7
:1024A0000A0B0C0D0E0F10100102000000000000BE
:1024B00000000102030406070809000000000102F1
:1024C00003040000E42400080000002010000000C5
:1024D0006C010008F42400081000002080070000B0
:1024E000880100080000000010000000010000004A
:0424F0000024F400D0
:0400000508000131BD
:00000001FF
